{
  "_format": "hh3-artifact-1",
  "contractName": "BNOU",
  "sourceName": "contracts/BNOU.sol",
  "abi": [
    {
      "inputs": [],
      "stateMutability": "nonpayable",
      "type": "constructor"
    },
    {
      "anonymous": false,
      "inputs": [
        {
          "indexed": true,
          "internalType": "address",
          "name": "owner",
          "type": "address"
        },
        {
          "indexed": true,
          "internalType": "address",
          "name": "spender",
          "type": "address"
        },
        {
          "indexed": false,
          "internalType": "uint256",
          "name": "value",
          "type": "uint256"
        }
      ],
      "name": "Approval",
      "type": "event"
    },
    {
      "anonymous": false,
      "inputs": [
        {
          "indexed": true,
          "internalType": "address",
          "name": "account",
          "type": "address"
        },
        {
          "indexed": false,
          "internalType": "bool",
          "name": "isExcluded",
          "type": "bool"
        }
      ],
      "name": "ExcludeFromFees",
      "type": "event"
    },
    {
      "anonymous": false,
      "inputs": [
        {
          "indexed": true,
          "internalType": "address",
          "name": "account",
          "type": "address"
        },
        {
          "indexed": false,
          "internalType": "bool",
          "name": "isExcluded",
          "type": "bool"
        }
      ],
      "name": "ExcludedFromMaxTransactionLimit",
      "type": "event"
    },
    {
      "anonymous": false,
      "inputs": [
        {
          "indexed": false,
          "internalType": "uint256",
          "name": "maxTransactionAmountBuy",
          "type": "uint256"
        },
        {
          "indexed": false,
          "internalType": "uint256",
          "name": "maxTransactionAmountSell",
          "type": "uint256"
        }
      ],
      "name": "MaxTransactionLimitAmountChanged",
      "type": "event"
    },
    {
      "anonymous": false,
      "inputs": [
        {
          "indexed": false,
          "internalType": "bool",
          "name": "maxTransactionLimit",
          "type": "bool"
        }
      ],
      "name": "MaxTransactionLimitStateChanged",
      "type": "event"
    },
    {
      "anonymous": false,
      "inputs": [
        {
          "indexed": true,
          "internalType": "address",
          "name": "previousOwner",
          "type": "address"
        },
        {
          "indexed": true,
          "internalType": "address",
          "name": "newOwner",
          "type": "address"
        }
      ],
      "name": "OwnershipTransferred",
      "type": "event"
    },
    {
      "anonymous": false,
      "inputs": [
        {
          "indexed": true,
          "internalType": "address",
          "name": "from",
          "type": "address"
        },
        {
          "indexed": true,
          "internalType": "address",
          "name": "to",
          "type": "address"
        },
        {
          "indexed": false,
          "internalType": "uint256",
          "name": "value",
          "type": "uint256"
        }
      ],
      "name": "Transfer",
      "type": "event"
    },
    {
      "inputs": [
        {
          "internalType": "address",
          "name": "owner",
          "type": "address"
        },
        {
          "internalType": "address",
          "name": "spender",
          "type": "address"
        }
      ],
      "name": "allowance",
      "outputs": [
        {
          "internalType": "uint256",
          "name": "",
          "type": "uint256"
        }
      ],
      "stateMutability": "view",
      "type": "function"
    },
    {
      "inputs": [
        {
          "internalType": "address",
          "name": "spender",
          "type": "address"
        },
        {
          "internalType": "uint256",
          "name": "amount",
          "type": "uint256"
        }
      ],
      "name": "approve",
      "outputs": [
        {
          "internalType": "bool",
          "name": "",
          "type": "bool"
        }
      ],
      "stateMutability": "nonpayable",
      "type": "function"
    },
    {
      "inputs": [
        {
          "internalType": "address",
          "name": "account",
          "type": "address"
        }
      ],
      "name": "balanceOf",
      "outputs": [
        {
          "internalType": "uint256",
          "name": "",
          "type": "uint256"
        }
      ],
      "stateMutability": "view",
      "type": "function"
    },
    {
      "inputs": [
        {
          "internalType": "address",
          "name": "token",
          "type": "address"
        }
      ],
      "name": "claimStuckTokens",
      "outputs": [],
      "stateMutability": "nonpayable",
      "type": "function"
    },
    {
      "inputs": [],
      "name": "creator",
      "outputs": [
        {
          "internalType": "string",
          "name": "",
          "type": "string"
        }
      ],
      "stateMutability": "view",
      "type": "function"
    },
    {
      "inputs": [],
      "name": "decimals",
      "outputs": [
        {
          "internalType": "uint8",
          "name": "",
          "type": "uint8"
        }
      ],
      "stateMutability": "view",
      "type": "function"
    },
    {
      "inputs": [
        {
          "internalType": "address",
          "name": "spender",
          "type": "address"
        },
        {
          "internalType": "uint256",
          "name": "subtractedValue",
          "type": "uint256"
        }
      ],
      "name": "decreaseAllowance",
      "outputs": [
        {
          "internalType": "bool",
          "name": "",
          "type": "bool"
        }
      ],
      "stateMutability": "nonpayable",
      "type": "function"
    },
    {
      "inputs": [],
      "name": "enableTrading",
      "outputs": [],
      "stateMutability": "nonpayable",
      "type": "function"
    },
    {
      "inputs": [
        {
          "internalType": "address",
          "name": "account",
          "type": "address"
        },
        {
          "internalType": "bool",
          "name": "excluded",
          "type": "bool"
        }
      ],
      "name": "excludeFromFees",
      "outputs": [],
      "stateMutability": "nonpayable",
      "type": "function"
    },
    {
      "inputs": [
        {
          "internalType": "address",
          "name": "account",
          "type": "address"
        },
        {
          "internalType": "bool",
          "name": "exclude",
          "type": "bool"
        }
      ],
      "name": "excludeFromMaxTransactionLimit",
      "outputs": [],
      "stateMutability": "nonpayable",
      "type": "function"
    },
    {
      "inputs": [
        {
          "internalType": "address",
          "name": "spender",
          "type": "address"
        },
        {
          "internalType": "uint256",
          "name": "addedValue",
          "type": "uint256"
        }
      ],
      "name": "increaseAllowance",
      "outputs": [
        {
          "internalType": "bool",
          "name": "",
          "type": "bool"
        }
      ],
      "stateMutability": "nonpayable",
      "type": "function"
    },
    {
      "inputs": [
        {
          "internalType": "address",
          "name": "account",
          "type": "address"
        }
      ],
      "name": "isExcludedFromFees",
      "outputs": [
        {
          "internalType": "bool",
          "name": "",
          "type": "bool"
        }
      ],
      "stateMutability": "view",
      "type": "function"
    },
    {
      "inputs": [
        {
          "internalType": "address",
          "name": "account",
          "type": "address"
        }
      ],
      "name": "isExcludedFromMaxTransaction",
      "outputs": [
        {
          "internalType": "bool",
          "name": "",
          "type": "bool"
        }
      ],
      "stateMutability": "view",
      "type": "function"
    },
    {
      "inputs": [],
      "name": "maxTransactionAmountBuy",
      "outputs": [
        {
          "internalType": "uint256",
          "name": "",
          "type": "uint256"
        }
      ],
      "stateMutability": "view",
      "type": "function"
    },
    {
      "inputs": [],
      "name": "maxTransactionAmountSell",
      "outputs": [
        {
          "internalType": "uint256",
          "name": "",
          "type": "uint256"
        }
      ],
      "stateMutability": "view",
      "type": "function"
    },
    {
      "inputs": [],
      "name": "maxTransactionLimitEnabled",
      "outputs": [
        {
          "internalType": "bool",
          "name": "",
          "type": "bool"
        }
      ],
      "stateMutability": "view",
      "type": "function"
    },
    {
      "inputs": [],
      "name": "name",
      "outputs": [
        {
          "internalType": "string",
          "name": "",
          "type": "string"
        }
      ],
      "stateMutability": "view",
      "type": "function"
    },
    {
      "inputs": [],
      "name": "owner",
      "outputs": [
        {
          "internalType": "address",
          "name": "",
          "type": "address"
        }
      ],
      "stateMutability": "view",
      "type": "function"
    },
    {
      "inputs": [],
      "name": "renounceOwnership",
      "outputs": [],
      "stateMutability": "nonpayable",
      "type": "function"
    },
    {
      "inputs": [
        {
          "internalType": "bool",
          "name": "enable",
          "type": "bool"
        }
      ],
      "name": "setEnableMaxTransactionLimit",
      "outputs": [],
      "stateMutability": "nonpayable",
      "type": "function"
    },
    {
      "inputs": [
        {
          "internalType": "uint256",
          "name": "_maxTransactionAmountBuy",
          "type": "uint256"
        },
        {
          "internalType": "uint256",
          "name": "_maxTransactionAmountSell",
          "type": "uint256"
        }
      ],
      "name": "setMaxTransactionAmounts",
      "outputs": [],
      "stateMutability": "nonpayable",
      "type": "function"
    },
    {
      "inputs": [],
      "name": "symbol",
      "outputs": [
        {
          "internalType": "string",
          "name": "",
          "type": "string"
        }
      ],
      "stateMutability": "view",
      "type": "function"
    },
    {
      "inputs": [],
      "name": "totalSupply",
      "outputs": [
        {
          "internalType": "uint256",
          "name": "",
          "type": "uint256"
        }
      ],
      "stateMutability": "view",
      "type": "function"
    },
    {
      "inputs": [],
      "name": "tradingEnabled",
      "outputs": [
        {
          "internalType": "bool",
          "name": "",
          "type": "bool"
        }
      ],
      "stateMutability": "view",
      "type": "function"
    },
    {
      "inputs": [
        {
          "internalType": "address",
          "name": "recipient",
          "type": "address"
        },
        {
          "internalType": "uint256",
          "name": "amount",
          "type": "uint256"
        }
      ],
      "name": "transfer",
      "outputs": [
        {
          "internalType": "bool",
          "name": "",
          "type": "bool"
        }
      ],
      "stateMutability": "nonpayable",
      "type": "function"
    },
    {
      "inputs": [
        {
          "internalType": "address",
          "name": "sender",
          "type": "address"
        },
        {
          "internalType": "address",
          "name": "recipient",
          "type": "address"
        },
        {
          "internalType": "uint256",
          "name": "amount",
          "type": "uint256"
        }
      ],
      "name": "transferFrom",
      "outputs": [
        {
          "internalType": "bool",
          "name": "",
          "type": "bool"
        }
      ],
      "stateMutability": "nonpayable",
      "type": "function"
    },
    {
      "inputs": [
        {
          "internalType": "address",
          "name": "newOwner",
          "type": "address"
        }
      ],
      "name": "transferOwnership",
      "outputs": [],
      "stateMutability": "nonpayable",
      "type": "function"
    },
    {
      "inputs": [],
      "name": "uniswapV2Pair",
      "outputs": [
        {
          "internalType": "address",
          "name": "",
          "type": "address"
        }
      ],
      "stateMutability": "view",
      "type": "function"
    },
    {
      "inputs": [],
      "name": "uniswapV2Router",
      "outputs": [
        {
          "internalType": "contract IUniswapV2Router02",
          "name": "",
          "type": "address"
        }
      ],
      "stateMutability": "view",
      "type": "function"
    },
    {
      "stateMutability": "payable",
      "type": "receive"
    }
  ],
  "bytecode": "0x60806040523480156200001157600080fd5b50604051806040016040528060068152602001654249544e4f5560d01b81525060405180604001604052806004815260200163424e4f5560e01b81525081600390816200005f9190620007cb565b5060046200006e8282620007cb565b5050506000620000836200050d60201b60201c565b600580546001600160a01b0319166001600160a01b038316908117909155604051919250906000907f8be0079c531659141344cd1fd0a4f28419497f9722a3daafe3b4186f6b6457e0908290a350600046603803620000f857507310ed43c718714eb63d5aa57b78b54704e256024e62000154565b466061036200011d575073d99d1c33f9fc3444f8101754abc46c52416550d162000154565b46600114806200012d5750466005145b156200014f5750737a250d5630b4cf539739df2c5dacb4c659f2488d62000154565b600080fd5b60008190506000816001600160a01b031663c45a01556040518163ffffffff1660e01b8152600401602060405180830381865afa1580156200019a573d6000803e3d6000fd5b505050506040513d601f19601f82011682018060405250810190620001c0919062000897565b6001600160a01b031663c9c6539630846001600160a01b031663ad5c46486040518163ffffffff1660e01b8152600401602060405180830381865afa1580156200020e573d6000803e3d6000fd5b505050506040513d601f19601f8201168201806040525081019062000234919062000897565b6040516001600160e01b031960e085901b1681526001600160a01b039283166004820152911660248201526044016020604051808303816000875af115801562000282573d6000803e3d6000fd5b505050506040513d601f19601f82011682018060405250810190620002a8919062000897565b600680546001600160a01b038086166001600160a01b031992831681179093556007805491851691909216179055909150620002e990309060001962000511565b60408051808201909152600c81526b18dbda5b9cdd5b1d0b9b995d60a21b60208201526009906200031b9082620007cb565b50600c805460ff19166001908117909155600b6000620003436005546001600160a01b031690565b6001600160a01b0316815260208082019290925260409081016000908120805494151560ff19958616179055308152600b90925281208054831660019081179091557f44433eeeda1d04bdae79f62169cdb2ab0a6af287fa15706d3fafdbac5fac3415805484168217905573407993575c91ce7643a4d4ccacc9a98c36ee1bbe82527f0ee566a5fef770f9f675ed6e31e45cad45685678788be996694e39aa7ef54fa980549093168117909255600890620004066005546001600160a01b031690565b6001600160a01b031681526020808201929092526040016000908120805493151560ff1994851617905573407993575c91ce7643a4d4ccacc9a98c36ee1bbe9052600890527f9abbb41a031421b1db0c5f86e21334738cf2d0250863fd0f355cb66c864e989080549091166001179055620004b16200048d6005546001600160a01b031690565b6200049b6012600a620009de565b620004ab90631dcd6500620009ef565b6200063d565b6103e8620004be60025490565b620004cb90600a620009ef565b620004d7919062000a09565b600d556103e8620004e760025490565b620004f490600a620009ef565b62000500919062000a09565b600e555062000a42915050565b3390565b6001600160a01b038316620005795760405162461bcd60e51b8152602060048201526024808201527f45524332303a20617070726f76652066726f6d20746865207a65726f206164646044820152637265737360e01b60648201526084015b60405180910390fd5b6001600160a01b038216620005dc5760405162461bcd60e51b815260206004820152602260248201527f45524332303a20617070726f766520746f20746865207a65726f206164647265604482015261737360f01b606482015260840162000570565b6001600160a01b0383811660008181526001602090815260408083209487168084529482529182902085905590518481527f8c5be1e5ebec7d5bd14f71427d1e84f3dd0314c0f7b2291e5b200ac8c7c3b925910160405180910390a3505050565b6001600160a01b038216620006955760405162461bcd60e51b815260206004820152601f60248201527f45524332303a206d696e7420746f20746865207a65726f206164647265737300604482015260640162000570565b8060026000828254620006a9919062000a2c565b90915550506001600160a01b03821660009081526020819052604081208054839290620006d890849062000a2c565b90915550506040518181526001600160a01b038316906000907fddf252ad1be2c89b69c2b068fc378daa952ba7f163c4a11628f55a4df523b3ef9060200160405180910390a35050565b505050565b634e487b7160e01b600052604160045260246000fd5b600181811c908216806200075257607f821691505b6020821081036200077357634e487b7160e01b600052602260045260246000fd5b50919050565b601f8211156200072257600081815260208120601f850160051c81016020861015620007a25750805b601f850160051c820191505b81811015620007c357828155600101620007ae565b505050505050565b81516001600160401b03811115620007e757620007e762000727565b620007ff81620007f884546200073d565b8462000779565b602080601f8311600181146200083757600084156200081e5750858301515b600019600386901b1c1916600185901b178555620007c3565b600085815260208120601f198616915b82811015620008685788860151825594840194600190910190840162000847565b5085821015620008875787850151600019600388901b60f8161c191681555b5050505050600190811b01905550565b600060208284031215620008aa57600080fd5b81516001600160a01b0381168114620008c257600080fd5b9392505050565b634e487b7160e01b600052601160045260246000fd5b600181815b8085111562000920578160001904821115620009045762000904620008c9565b808516156200091257918102915b93841c9390800290620008e4565b509250929050565b6000826200093957506001620009d8565b816200094857506000620009d8565b81600181146200096157600281146200096c576200098c565b6001915050620009d8565b60ff841115620009805762000980620008c9565b50506001821b620009d8565b5060208310610133831016604e8410600b8410161715620009b1575081810a620009d8565b620009bd8383620008df565b8060001904821115620009d457620009d4620008c9565b0290505b92915050565b6000620008c260ff84168362000928565b8082028115828204841417620009d857620009d8620008c9565b60008262000a2757634e487b7160e01b600052601260045260246000fd5b500490565b80820180821115620009d857620009d8620008c9565b611a948062000a526000396000f3fe6080604052600436106101c65760003560e01c806356a6cabf116100f757806395d89b4111610095578063c024666811610064578063c02466681461051c578063dd62ed3e1461053c578063f2fde38b14610582578063f9d0831a146105a257600080fd5b806395d89b41146104a7578063a457c2d7146104bc578063a9059cbb146104dc578063b6f7f681146104fc57600080fd5b8063715018a6116100d1578063715018a61461043f578063880bcbc1146104545780638a8c523c146104745780638da5cb5b1461048957600080fd5b806356a6cabf146103d157806359136fa5146103f357806370a082311461040957600080fd5b806323b872dd11610164578063395093511161013e578063395093511461033e57806349bd5a5e1461035e5780634ada218b1461037e5780634fbee1931461039857600080fd5b806323b872dd146102e85780632ba86bf214610308578063313ce5671461032257600080fd5b8063095ea7b3116101a0578063095ea7b3146102325780631694505e1461026257806318160ddd1461029a57806318d9ceae146102af57600080fd5b80630105d0fd146101d257806302d05d3f146101fb57806306fdde031461021d57600080fd5b366101cd57005b600080fd5b3480156101de57600080fd5b506101e8600d5481565b6040519081526020015b60405180910390f35b34801561020757600080fd5b506102106105c2565b6040516101f291906115d6565b34801561022957600080fd5b50610210610650565b34801561023e57600080fd5b5061025261024d366004611640565b6106e2565b60405190151581526020016101f2565b34801561026e57600080fd5b50600654610282906001600160a01b031681565b6040516001600160a01b0390911681526020016101f2565b3480156102a657600080fd5b506002546101e8565b3480156102bb57600080fd5b506102526102ca36600461166a565b6001600160a01b03166000908152600b602052604090205460ff1690565b3480156102f457600080fd5b5061025261030336600461168c565b6106f9565b34801561031457600080fd5b50600c546102529060ff1681565b34801561032e57600080fd5b50604051601281526020016101f2565b34801561034a57600080fd5b50610252610359366004611640565b6107af565b34801561036a57600080fd5b50600754610282906001600160a01b031681565b34801561038a57600080fd5b50600a546102529060ff1681565b3480156103a457600080fd5b506102526103b336600461166a565b6001600160a01b031660009081526008602052604090205460ff1690565b3480156103dd57600080fd5b506103f16103ec3660046116d6565b6107eb565b005b3480156103ff57600080fd5b506101e8600e5481565b34801561041557600080fd5b506101e861042436600461166a565b6001600160a01b031660009081526020819052604090205490565b34801561044b57600080fd5b506103f16108d5565b34801561046057600080fd5b506103f161046f3660046116f3565b610949565b34801561048057600080fd5b506103f1610aa6565b34801561049557600080fd5b506005546001600160a01b0316610282565b3480156104b357600080fd5b50610210610b32565b3480156104c857600080fd5b506102526104d7366004611640565b610b41565b3480156104e857600080fd5b506102526104f7366004611640565b610bda565b34801561050857600080fd5b506103f161051736600461172a565b610be7565b34801561052857600080fd5b506103f16105373660046116f3565b610d56565b34801561054857600080fd5b506101e861055736600461174c565b6001600160a01b03918216600090815260016020908152604080832093909416825291909152205490565b34801561058e57600080fd5b506103f161059d36600461166a565b610e2e565b3480156105ae57600080fd5b506103f16105bd36600461166a565b610f19565b600980546105cf9061177f565b80601f01602080910402602001604051908101604052809291908181526020018280546105fb9061177f565b80156106485780601f1061061d57610100808354040283529160200191610648565b820191906000526020600020905b81548152906001019060200180831161062b57829003601f168201915b505050505081565b60606003805461065f9061177f565b80601f016020809104026020016040519081016040528092919081815260200182805461068b9061177f565b80156106d85780601f106106ad576101008083540402835291602001916106d8565b820191906000526020600020905b8154815290600101906020018083116106bb57829003601f168201915b5050505050905090565b60006106ef3384846110c5565b5060015b92915050565b6001600160a01b03831660009081526001602090815260408083203384529091528120546000198114610799578281101561078c5760405162461bcd60e51b815260206004820152602860248201527f45524332303a207472616e7366657220616d6f756e74206578636565647320616044820152676c6c6f77616e636560c01b60648201526084015b60405180910390fd5b61079985338584036110c5565b6107a48585856111e9565b506001949350505050565b3360008181526001602090815260408083206001600160a01b038716845290915281205490916106ef9185906107e69086906117cf565b6110c5565b6005546001600160a01b031633146108155760405162461bcd60e51b8152600401610783906117e2565b600c5460ff161515811515036108885760405162461bcd60e51b815260206004820152603260248201527f4d6178207472616e73616374696f6e206c696d697420697320616c72656164796044820152712073657420746f207468617420737461746560701b6064820152608401610783565b600c805460ff191682151590811790915560405160ff909116151581527fe81be35e61864c26afd7a4655e99f321378d0aaae1e5af8ee67b658a7460f3cf9060200160405180910390a150565b6005546001600160a01b031633146108ff5760405162461bcd60e51b8152600401610783906117e2565b6005546040516000916001600160a01b0316907f8be0079c531659141344cd1fd0a4f28419497f9722a3daafe3b4186f6b6457e0908390a3600580546001600160a01b0319169055565b6005546001600160a01b031633146109735760405162461bcd60e51b8152600401610783906117e2565b6001600160a01b0382166000908152600b602052604090205481151560ff9091161515036109ef5760405162461bcd60e51b8152602060048201526024808201527f4163636f756e7420697320616c72656164792073657420746f207468617420736044820152637461746560e01b6064820152608401610783565b306001600160a01b03831603610a475760405162461bcd60e51b815260206004820152601760248201527f43616e277420736574207468697320616464726573732e0000000000000000006044820152606401610783565b6001600160a01b0382166000818152600b6020908152604091829020805460ff191685151590811790915591519182527f8727c4afe988887760e8db0bbad9f9fcceee6428545956832f67c8fdbd589c10910160405180910390a25050565b6005546001600160a01b03163314610ad05760405162461bcd60e51b8152600401610783906117e2565b600a5460ff1615610b235760405162461bcd60e51b815260206004820152601860248201527f54726164696e6720616c726561647920656e61626c65642e00000000000000006044820152606401610783565b600a805460ff19166001179055565b60606004805461065f9061177f565b3360009081526001602090815260408083206001600160a01b038616845290915281205482811015610bc35760405162461bcd60e51b815260206004820152602560248201527f45524332303a2064656372656173656420616c6c6f77616e63652062656c6f77604482015264207a65726f60d81b6064820152608401610783565b610bd033858584036110c5565b5060019392505050565b60006106ef3384846111e9565b6005546001600160a01b03163314610c115760405162461bcd60e51b8152600401610783906117e2565b6103e8610c206012600a6118fb565b600254610c2d919061190a565b610c37919061190a565b8210158015610c6b57506103e8610c506012600a6118fb565b600254610c5d919061190a565b610c67919061190a565b8110155b610cdd5760405162461bcd60e51b815260206004820152603f60248201527f4d6178205472616e73616374696f6e206c696d69732063616e6e6f742062652060448201527f6c6f776572207468616e20302e3125206f6620746f74616c20737570706c79006064820152608401610783565b610ce96012600a6118fb565b610cf3908361192c565b600d55610d026012600a6118fb565b610d0c908261192c565b600e819055600d546040517f8c8cbc911b80df94332ececb8eb0945274d76fa965600a0f01f42af3f8afb13192610d4a928252602082015260400190565b60405180910390a15050565b6005546001600160a01b03163314610d805760405162461bcd60e51b8152600401610783906117e2565b6001600160a01b03821660009081526008602052604090205481151560ff909116151503610e035760405162461bcd60e51b815260206004820152602a60248201527f4163636f756e7420697320616c7265616479207468652076616c7565206f6620604482015269276578636c756465642760b01b6064820152608401610783565b6001600160a01b03919091166000908152600860205260409020805460ff1916911515919091179055565b6005546001600160a01b03163314610e585760405162461bcd60e51b8152600401610783906117e2565b6001600160a01b038116610ebd5760405162461bcd60e51b815260206004820152602660248201527f4f776e61626c653a206e6577206f776e657220697320746865207a65726f206160448201526564647265737360d01b6064820152608401610783565b6005546040516001600160a01b038084169216907f8be0079c531659141344cd1fd0a4f28419497f9722a3daafe3b4186f6b6457e090600090a3600580546001600160a01b0319166001600160a01b0392909216919091179055565b6005546001600160a01b03163314610f435760405162461bcd60e51b8152600401610783906117e2565b306001600160a01b03821603610fc15760405162461bcd60e51b815260206004820152603760248201527f4f776e65722063616e6e6f7420636c61696d20636f6e7472616374277320626160448201527f6c616e6365206f6620697473206f776e20746f6b656e730000000000000000006064820152608401610783565b6001600160a01b038116610fdd57610fd933476113d3565b5050565b6040516370a0823160e01b815230600482015281906000906001600160a01b038316906370a0823190602401602060405180830381865afa158015611026573d6000803e3d6000fd5b505050506040513d601f19601f8201168201806040525081019061104a9190611943565b60405163a9059cbb60e01b8152336004820152602481018290529091506001600160a01b0383169063a9059cbb906044016020604051808303816000875af115801561109a573d6000803e3d6000fd5b505050506040513d601f19601f820116820180604052508101906110be919061195c565b5050505b50565b6001600160a01b0383166111275760405162461bcd60e51b8152602060048201526024808201527f45524332303a20617070726f76652066726f6d20746865207a65726f206164646044820152637265737360e01b6064820152608401610783565b6001600160a01b0382166111885760405162461bcd60e51b815260206004820152602260248201527f45524332303a20617070726f766520746f20746865207a65726f206164647265604482015261737360f01b6064820152608401610783565b6001600160a01b0383811660008181526001602090815260408083209487168084529482529182902085905590518481527f8c5be1e5ebec7d5bd14f71427d1e84f3dd0314c0f7b2291e5b200ac8c7c3b925910160405180910390a3505050565b6001600160a01b03831661120f5760405162461bcd60e51b815260040161078390611979565b6001600160a01b0382166112355760405162461bcd60e51b8152600401610783906119be565b600a5460ff168061125e57506001600160a01b03831660009081526008602052604090205460ff165b8061128157506001600160a01b03821660009081526008602052604090205460ff165b6112cd5760405162461bcd60e51b815260206004820152601860248201527f54726164696e67206e6f742079657420656e61626c65642100000000000000006044820152606401610783565b806000036112e6576112e183836000611482565b505050565b600c5460ff16156113c8576007546001600160a01b038481169116148061131a57506007546001600160a01b038381169116145b801561133f57506001600160a01b0383166000908152600b602052604090205460ff16155b801561136457506001600160a01b0382166000908152600b602052604090205460ff16155b156113c8576007546001600160a01b03908116908416036113a657600d548111156113a15760405162461bcd60e51b815260040161078390611a01565b6113c8565b600e548111156113c85760405162461bcd60e51b815260040161078390611a01565b6112e1838383611482565b6000814710156114255760405162461bcd60e51b815260206004820152601d60248201527f416464726573733a20696e73756666696369656e742062616c616e63650000006044820152606401610783565b6000836001600160a01b03168360405160006040518083038185875af1925050503d8060008114611472576040519150601f19603f3d011682016040523d82523d6000602084013e611477565b606091505b509095945050505050565b6001600160a01b0383166114a85760405162461bcd60e51b815260040161078390611979565b6001600160a01b0382166114ce5760405162461bcd60e51b8152600401610783906119be565b6001600160a01b038316600090815260208190526040902054818110156115465760405162461bcd60e51b815260206004820152602660248201527f45524332303a207472616e7366657220616d6f756e7420657863656564732062604482015265616c616e636560d01b6064820152608401610783565b6001600160a01b0380851660009081526020819052604080822085850390559185168152908120805484929061157d9084906117cf565b92505081905550826001600160a01b0316846001600160a01b03167fddf252ad1be2c89b69c2b068fc378daa952ba7f163c4a11628f55a4df523b3ef846040516115c991815260200190565b60405180910390a36110be565b600060208083528351808285015260005b81811015611603578581018301518582016040015282016115e7565b506000604082860101526040601f19601f8301168501019250505092915050565b80356001600160a01b038116811461163b57600080fd5b919050565b6000806040838503121561165357600080fd5b61165c83611624565b946020939093013593505050565b60006020828403121561167c57600080fd5b61168582611624565b9392505050565b6000806000606084860312156116a157600080fd5b6116aa84611624565b92506116b860208501611624565b9150604084013590509250925092565b80151581146110c257600080fd5b6000602082840312156116e857600080fd5b8135611685816116c8565b6000806040838503121561170657600080fd5b61170f83611624565b9150602083013561171f816116c8565b809150509250929050565b6000806040838503121561173d57600080fd5b50508035926020909101359150565b6000806040838503121561175f57600080fd5b61176883611624565b915061177660208401611624565b90509250929050565b600181811c9082168061179357607f821691505b6020821081036117b357634e487b7160e01b600052602260045260246000fd5b50919050565b634e487b7160e01b600052601160045260246000fd5b808201808211156106f3576106f36117b9565b6020808252818101527f4f776e61626c653a2063616c6c6572206973206e6f7420746865206f776e6572604082015260600190565b600181815b80851115611852578160001904821115611838576118386117b9565b8085161561184557918102915b93841c939080029061181c565b509250929050565b600082611869575060016106f3565b81611876575060006106f3565b816001811461188c5760028114611896576118b2565b60019150506106f3565b60ff8411156118a7576118a76117b9565b50506001821b6106f3565b5060208310610133831016604e8410600b84101617156118d5575081810a6106f3565b6118df8383611817565b80600019048211156118f3576118f36117b9565b029392505050565b600061168560ff84168361185a565b60008261192757634e487b7160e01b600052601260045260246000fd5b500490565b80820281158282048414176106f3576106f36117b9565b60006020828403121561195557600080fd5b5051919050565b60006020828403121561196e57600080fd5b8151611685816116c8565b60208082526025908201527f45524332303a207472616e736665722066726f6d20746865207a65726f206164604082015264647265737360d81b606082015260800190565b60208082526023908201527f45524332303a207472616e7366657220746f20746865207a65726f206164647260408201526265737360e81b606082015260800190565b6020808252603b908201527f416e74695768616c653a205472616e7366657220616d6f756e7420657863656560408201527f647320746865206d61785472616e73616374696f6e416d6f756e74000000000060608201526080019056fea2646970667358221220a13a941c245661e84f00425553022d12eb18504c59d873d91c71134377bd0ada64736f6c63430008110033",
  "linkReferences": {},
  "deployedLinkReferences": {},
  "immutableReferences": {},
  "inputSourceName": "project/contracts/BNOU.sol",
  "buildInfoId": "solc-0_8_17-af3831262e4b9a965710a91fe90c1b24e359a3e9"
}